:100000000C949E010C94BB010C94BB010C94BB019D
:100010000C94BB010C94BB010C94BB010C94A7067F
:100020000C94BB010C94BB010C9449040C94BB01CF
:100030000C9417040C94BB010C94BB010C94BB01F1
:100040000C94BB010C94BB010C94BB010C94BB0140
:100050000C94BB01020000025F00040300030006D1
:10006000147F147F140006242A7F2A12000623130B
:10007000086462000636495522500006000003005D
:10008000000006001C22410000060041221C000066
:100090000614083E0814000608083E08080006007A
:1000A000005030000006080808080800060000603C
:1000B00060000006201008040200063E5149453E3B
:1000C000000600427F40000006426151494600069A
:1000D0002141454B3100061814127F1000062745B8
:1000E00045453900063C4A4949300006030171097B
:1000F00007000636494949360006064949291E00C7
:1001000006000036360000060000563600000608DD
:100110001422410000061414141414000641221481
:100120000800000602015109060006324979413EE5
:1001300000067E1111117E00067F494949360006EE
:100140003E4141412200067F4141221C00067F4979
:1001500049494100067F0909090100063E41494914
:100160007A00067F0808087F000600417F410000F2
:10017000062040413F0100067F0814224100067F0F
:100180004040404000067F020C027F00067F0408CA
:10019000107F00063E4141413E00067F09090906E5
:1001A00000063E4151215E00067F091929460006DE
:1001B0004649494931000601017F010100063F40DF
:1001C00040403F00061F2040201F00063F403840AF
:1001D0003F00066314081463000607087008070050
:1001E0000661514945430006007F41410000060277
:1001F0000408102000060041417F000006040201AF
:100200000204000640404040400006000102040095
:100210000006205454547800067F484444380006B1
:1002200038444444200006384444487F000638548B
:100230005454180006087E09010200060C5252525E
:100240003C00067F08040478000600447D4000005E
:10025000062040443D0000067F10284400000600B0
:10026000417F4000000678083008700006781008CA
:1002700008700006304848483000067C1414140802
:100280000006081414187C00067C08040408000604
:1002900048545454200006043F44402000063C408B
:1002A00040207C00061C2040201C00063C403840BA
:1002B0003C0006442810284400060C5050503C00D6
:1002C000064464544C440006000836410000060011
:1002D000007F000000060041360800000608040800
:1002E0001008005C2D005C33005C32005C31001FA4
:1002F0001D1F1E1F1E1F1F1E1F1E1F010106001790
:100300000419896382536335010135010304000533
:100310001A06FF071F080009000AFF0B19C100C0D9
:100320000DC232CAEECB05C412C612C70CE400E5FA
:1003300000E200E300E000E10038A10011241FBE4C
:10034000CFE5D8E0DEBFCDBF10E0A0E6B0E0E4ED41
:10035000F7E302C005900D92A238B107D9F715E076
:10036000A2E8B0E001C01D92A43BB107E1F70E94F2
:1003700088040C94E81B0C940000E62FF0E095E054
:10038000EE0FFF1F9A95E1F7982F96959695969503
:10039000E90FF11DE357FF4F9081877021E030E0B6
:1003A00002C0220F331F8A95E2F7922B90830895A3
:1003B000E62FF0E025E0EE0FFF1F2A95E1F7982FDA
:1003C000969596959695E90FF11DE357FF4F90810D
:1003D000877021E030E002C0220F331F8A95E2F7D8
:1003E0002095922390830895DF92EF92FF920F93CE
:1003F0001F93162FF42EE22E002311F4082F16C09F
:10040000082F08C0802F6D2D0E94BD01D394DE14EB
:10041000C8F30F5F0F1570F4D12EF9CF802F6D2D1B
:100420000E94D801D394DE14C8F30F5F0F1510F4A7
:10043000D12EF9CF1F910F91FF90EF90DF9008958B
:100440000F9380E060E04FEF2FE000E00E94F401A6
:100450000F910895E62FF0E035E0EE0FFF1F3A957B
:10046000E1F7982F969596959695E90FF11DE3572C
:10047000FF4F208130E0877002C0359527958A951F
:10048000E2F7822F81700895442319F00E94BD0184
:1004900008950E94D8010895DF92EF92FF920F9382
:1004A0001F93082F162FF42ED22EE82E09C08E2D62
:1004B000612F0E94BD018E2D6D2D0E94BD01E39420
:1004C000EF14A8F309C0802F612F0E94BD018F2D6A
:1004D000612F0E94BD011F5FD116A8F71F910F91D8
:1004E000FF90EF90DF9008950F931F93DF93CF93CA
:1004F0000F92CDB7DEB7162F082F07C0802F642FBD
:1005000049830E94BD010F5F49810117B8F30F9025
:10051000CF91DF911F910F9108950F931F93DF9358
:10052000CF930F92CDB7DEB7162F082F07C0842FB9
:10053000602F49830E94BD010F5F49810117B8F305
:100540000F90CF91DF911F910F910895AF92BF92BD
:10055000DF92EF92FF920F931F93DF93CF9300D020
:10056000CDB7DEB7162F8032910518F480E090E009
:100570000AC08038910510F4809705C08038910535
:1005800011F484E690E020E030E008C0E490FF241D
:100590000894E11CF11C2E0D3F1D0197F901EC5A46
:1005A000FF4F009799F7E49055E5A52E50E0B52E42
:1005B000A20EB31E00E019C0F501F49090E0D02E19
:1005C000D10EF0FE09C0692F640F8D2D4A839983E7
:1005D0000E94BD0199814A819F5F983011F0F69485
:1005E000F0CF0F5F0894A11CB11C0E1528F38E2DBF
:1005F0000F900F90CF91DF911F910F91FF90EF908F
:10060000DF90BF90AF900895CF92DF92FF920F934B
:100610001F93DF93CF9300D0CDB7DEB76C01F62EDA
:10062000142F362F13C090E0632F412F2A83398374
:100630000E94A60239813A5F2A81231720F4185FAD
:10064000011740F03F2D0894C11CD11CF601808198
:10065000882349F70F900F90CF91DF911F910F9151
:10066000FF90DF90CF900895EF92FF920F931F932A
:10067000DF93CF9300D0CDB7DEB77C01162F342F98
:1006800013C090E0612F432F2A8339830E94A60272
:100690001A5F2A813981211720F4385F031740F04F
:1006A00010E00894E11CF11CF7018491882349F7BC
:1006B0000F900F90CF91DF911F910F91FF90EF90CE
:1006C00008956F927F929F92AF92BF92CF92DF92E6
:1006D000EF92FF920F931F93CF93DF93E42E9C0131
:1006E0002F5F3F4FFC01849159010894A11CB11C5C
:1006F000F9012491162F992408E0C62EDD24C80E96
:10070000D11CC42FD0E0C20FD11D67E0662E712C22
:100710001FC0083031F4F5010894A11CB11C94905D
:1007200000E0492D50E0C301801B910902C055959E
:1007300047958A95E2F74170812F6F2D0E94440200
:100740000F5FF3948F2D90E08C179D0714F31F5FBC
:10075000812F90E08C159D0514F4FE2CF3CFDF91D2
:10076000CF911F910F91FF90EF90DF90CF90BF90AE
:10077000AF909F907F906F9008951F93182F64E61D
:100780000E94561B90E0C09660E040E00E94A602E6
:10079000812F64E60E94561B192F892F6AE00E9460
:1007A000561B90E0C09660E040E00E94A602812FB8
:1007B0006AE00E94561B892F90E0C09660E040E0FE
:1007C0000E94A6021F910895FF920F931F93F82E87
:1007D000062F142F282F22952F70822F90E02A3079
:1007E00010F0C79601C0C096602F412F0E94A6024C
:1007F0002F2D2F70822F90E0602F6A5F2A3010F02B
:10080000C79601C0C096412F0E94A6021F910F916A
:10081000FF90089581E08EB980EF8DB908958DE045
:1008200083BF82E089BF12BE85E08CBF08951F920E
:100830000F920FB60F9211248F93EF93FF93809135
:100840008300882389F0E0918D02F0918E028191DE
:1008500080958FB9F0938E02E0938D028091830092
:100860008150809383000DC080E482BB80E682BB10
:100870008091840088BB12BA809184008F5F80933E
:100880008400FF91EF918F910F900FBE0F901F90FA
:1008900018951F920F920FB60F9211242F938F93DA
:1008A0009F93EF93FF93809184008031D0F48091E7
:1008B000840090E025E0880F991F2A95E1F783577F
:1008C0009F4F90938E0280938D022FE1209383009F
:1008D000FC01819180958FB9F0938E02E0938D0297
:1008E0000DC0809184008F5F80938400909184007C
:1008F00080916B00981710F010928400FF91EF9197
:100900009F918F912F910F900FBE0F901F90189570
:1009100087B38FEF87BB81B3806681BB80E482BBE6
:1009200080E092E00197FC01E357FF4F10820097AF
:10093000C9F781E08EB980EF8DB90E9407150E943A
:10094000D81784ED99E16CE375E140EF56E10E9420
:10095000D7148091690090916A000E94530D8DE038
:1009600083BF82E089BF12BE85E08CBF789481E4AA
:1009700093E00E94A11481E493E00E94B20FF7CFAC
:100980002AE230E00AC0FC01E20FF31FE081435786
:100990005F4FDA01EC932F5F3F4FA9014A5250405D
:1009A0002617370780F30895EF92FF920F931F9356
:1009B000CF93DF938C01EB017A016CEE72E042E0A1
:1009C00050E00E94D11B009741F4888199810296E2
:1009D00099838883F701108242C0C80169EE72E0F2
:1009E00042E050E00E94D11B009739F48881998140
:1009F00002969983888381E00FC0C80166EE72E099
:100A000042E050E00E94D11B009749F4888199810F
:100A100002969983888382E0F701808320C0C80111
:100A200063EE72E042E050E00E94D11B009791F427
:100A3000F8019281892F80538A3040F4990F892FD1
:100A4000880F880F890F805D80936B008881998162
:100A5000039603C088819981019699838883DF91E9
:100A6000CF911F910F91FF90EF9008958F929F92D9
:100A7000AF92BF92CF92DF92EF92FF920F931F93AC
:100A8000DF93CF9300D00F92CDB7DEB77C016B011F
:100A9000FC01E60FF71F10828AE290E09B838A83B5
:100AA00019820E94200200E010E082E0882E912C42
:100AB0008C0E9D1E5E010894A11CB11C37C0F7016D
:100AC000E20FF31F80818C3531F4CF01B401A50111
:100AD0000E94D4042BC09981992329F09130A9F068
:100AE0009230F1F407C02F5F3F4F3B832A8390E0A1
:100AF000612F12C090E0612F402F0E94A6022A8130
:100B00003B81F701E20FF31F80812F5F3F4F3B8353
:100B10002A83612F605890E0402F0E94A602180F90
:100B20001E3720F0085F0F3030F410E02A813B813F
:100B30002C153D0520F20F900F900F90CF91DF9173
:100B40001F910F91FF90EF90DF90CF90BF90AF90EB
:100B50009F908F9008951FBC89E08EBD88EE93E032
:100B60009BBD8ABD80E189BF0895AF92BF92CF92AD
:100B7000DF92EF92FF920F931F93B92EE0906C00DB
:100B8000B0916D0010916E0000916F00C0907000E8
:100B9000F0907100D0907200A0907300922F9E1977
:100BA000E92EF1E0291708F0F0E0932F9B1BB92FF5
:100BB000A1E0391708F0A0E09B2F9F1BF92F91E0CF
:100BC000BF1708F090E0A92B942F911B192FB1E0CB
:100BD000491708F0B0E0912F9A1BA92F91E01A173E
:100BE00008F090E0B92B952F901B092F11E05917B1
:100BF00008F010E0902F9B1BB92F91E00B1708F025
:100C000090E0192B962F9C19C92E01E0691708F066
:100C100000E09C2D911B192F91E0C11608F090E087
:100C2000092B972F9F19F92EE1E0791708F0E0E0E2
:100C30009F2D901B092F91E0F01608F090E0E92B12
:100C4000982F9D19D92EFF24F394891708F0FF24BB
:100C50009D2D9E1BE1E0D91608F0E0E0FE2AEB2D69
:100C6000EA19EF19F89420936C0030936D004093CB
:100C70006E0050936F0060937000709371008093CA
:100C80007200B092730078941E16ACF0EE23B9F4A3
:100C9000992389F4002379F4112369F4BB2359F4CF
:100CA000A13248F4A03279F5F53C28F4F43C59F52A
:100CB0008BE98E1540F580917400865F22C0EF3F6E
:100CC000ECF0EF3F01F59F3FC8F09F3FE1F40F3F8D
:100CD000A8F00F3FC1F41F3F88F01F3FA1F4BF3FB2
:100CE00068F0BF3F81F4AF3D48F0AF3D61F4FB33A6
:100CF00028F0FB3341F495E6E91628F4809174005E
:100D00008A508093740020916C0030916D00409166
:100D10006E0050916F006091700070917100809131
:100D200072009091730000E20E94701A2093850077
:100D30003093860040938700509388001F910F9155
:100D4000FF90EF90DF90CF90BF90AF9008951F92EB
:100D50000F920FB60F921124EF93FF93E0916C0066
:100D6000F0917400EF0FE0936C00E0916D00F7E4F8
:100D7000EF1FE0936D00E0916E00F3E0EF1FE09352
:100D80006E00D0F4E0916F00F09170003196E09326
:100D90006F00F093700080F4E0917100F0917200A8
:100DA0003196E0937100F093720030F4E09173009B
:100DB000F0E03196E0937300FF91EF910F900FBE3A
:100DC0000F901F901895EF92FF920F931F93209111
:100DD0006C0030916D0040916E0050916F006091F9
:100DE000700070917100809172009091730000E228
:100DF0000E94701A79018A01809185009091860085
:100E0000A0918700B0918800A8019701281B390B99
:100E10004A0B5B0B2F3131054105510548F430E099
:100E2000E31630E0F30631E0030730E0130798F5EE
:100E30008E2D90918900E91620F04E2D491B942F9C
:100E400002C090959E0D903130F08093890081E42E
:100E500093E00E9486088091850090918600A09181
:100E60008700B0918800A8019701281B390B4A0B15
:100E70005B0B253B31054105510568F0D801C701E1
:100E8000CC97A109B1098093850090938600A09327
:100E90008700B09388001F910F91FF90EF90089505
:100EA0005093900240938F026093B1027093B2020C
:100EB0008093B3029093B4020895EF92FF920F9340
:100EC0001F93CF93DF937B018C01EA0180E29CE1C9
:100ED000A0E0B0E0E80EF91E0A1F1B1FC801B70111
:100EE0002CE330E040E050E00E94621B6D83C801BB
:100EF000B7012CE330E040E050E00E94621B790132
:100F00008A01B901CA012CE330E040E050E00E94C0
:100F1000621B6C83B701C8012CE330E040E050E075
:100F20000E94621BF22E032F142FE52E622F732FC7
:100F3000842F952F28E130E040E050E00E94621BB2
:100F40006B836F2D702F812F9E2D28E130E040E0C4
:100F500050E00E94621B822F932FA42FB52F34E004
:100F600020E0422F50E0437050704115510541F48C
:100F7000222321F0243611F0283C29F4315019F0B5
:100F80004DE651E002C04EE651E07A0100E010E08B
:100F90008E159F05A007B10730F08E199F09A00B91
:100FA000B10B2F5FDECF2883E1E04D365E0741F4C1
:100FB0008B339105A105B10518F00196A11DB11D56
:100FC0000FEE12E021E0A8010F5F1F4FFA013491EC
:100FD000831B9109A109B109F801449150E060E037
:100FE00070E084179507A607B70718F02F5F2C301D
:100FF00051F78A832F5F2983DF91CF911F910F9142
:10100000FF90EF900895DF93CF9300D000D000D0F1
:10101000CDB7DEB7AE014F5F5F4F0E945D072C81F9
:101020008CE3289F900111248D81280F311DC90167
:1010300026960FB6F894DEBF0FBECDBFCF91DF91DD
:101040000895CF92DF92EF92FF920F931F93DF9359
:10105000CF9300D000D000D0CDB7DEB76C0183EEC7
:10106000F60182A713A684E084A78AEF85A78EE203
:1010700090E0F601E80FF91F108201968A3591057C
:10108000C1F781E0F60187A783ABEE5BFF4F80E0FD
:1010900090E0DC01A459BF4F17962C91179720833D
:1010A00017962C911797208B019731962FEF883F39
:1010B000920779F781EB92E08E010F5F1F4FB80125
:1010C000A6010E94A311882391F0C60161EB72E092
:1010D000A8012BEB3CE90BE710E0E0E3EE2EF12C4E
:1010E0000E943B10C6016AE570E00E945A142696E1
:1010F0000FB6F894DEBF0FBECDBFCF91DF911F9129
:101100000F91FF90EF90DF90CF90089510928A009A
:101110000E94210808952F923F924F925F926F9202
:101120007F928F929F92AF92BF92CF92DF92EF9277
:10113000FF920F931F93DF93CF93CDB7DEB76597E1
:101140000FB6F894DEBF0FBECDBF7C01DC019A96CE
:101150008C919A978F73843209F08CC4E0918A0045
:10116000F0E013E0EE0FFF1F1A95E1F7B5EBCB2E81
:10117000B2E0DB2ECE0EDF1EEF56FD4F70916C00FD
:1011800060916D0050916E0040916F003091700041
:10119000209171009091720080917300708361833F
:1011A000528343833483258396838783A701465BD9
:1011B0005F4F9E01255F3F4F3D8B2C8BCE010396E9
:1011C000BA01DB011D91BD01D90117961C93179738
:1011D0002150304028173907A1F72B85D6012C93D1
:1011E0002C8511962C9311972D8512962C9312977E
:1011F0002E8513962C9313972F8514962C93149762
:10120000288915962C931597298916962C9316974D
:101210002A8917962C93B7016E5B7F4F2C893D89E5
:10122000DB011D91BD01D90117961C931797215021
:10123000304028173907A1F7D6012C9111968C90D0
:10124000119712969C9012971396AC901397149640
:10125000BC90149715960C91159716961C9116979D
:1012600017967C907B853C852D843E844F845888DE
:101270006988BA89622F671B762F61E0271708F00B
:1012800060E0A82DA31B3A2F21E08A1608F020E089
:10129000A32FA61B6A2F882483943A1708F088246A
:1012A0002829392D3219232E31E0921408F030E02C
:1012B000A22DA21B2A2F992493942A1608F0992470
:1012C0003929AA2DA3193A2E99249394AA1608F025
:1012D0009924A32CA31A31E03A1408F030E0932AA1
:1012E0003B2D3419432E31E0B41408F030E0A42D26
:1012F000A9199A2EBB24B3944A1608F0BB243B29A3
:10130000A02FA5195A2EBB24B3940A1708F0BB24AA
:10131000052D031B31E0501608F030E0B32A312FC1
:101320003619632E31E0161508F030E0A62DAB1902
:10133000BA2E11E06A1608F010E0312B7B1A731AEE
:10134000D6017C9311966C93119712962C93129759
:101350001396AC92139714969C92149715960C932F
:1013600015971696BC92169717967C9220818180CD
:101370009280A380B4800581168177807B853C852F
:101380002D843E844F8458886988BA89622F671BF0
:10139000762F61E0271708F060E0A82DA31B3A2FF5
:1013A00021E08A1608F020E0A32FA61B6A2F8824CC
:1013B00083943A1708F088242829392D3219232ECE
:1013C00031E0921408F030E0A22DA21B2A2F9924BC
:1013D00093942A1608F099243929AA2DA3193A2E94
:1013E00099249394AA1608F09924A32CA31A31E007
:1013F0003A1408F030E0932A3B2D3419432E31E0A3
:10140000B41408F030E0A42DA9199A2EBB24B3948B
:101410004A1608F0BB243B29A02FA5195A2EBB243D
:10142000B3940A1708F0BB24052D031B31E05016B6
:1014300008F030E0B32A312F3619632E31E016154B
:1014400008F030E0A62DAB19BA2E11E06A1608F0AC
:1014500010E0312B7B1A731A708361832283A3827D
:1014600094820583B68277822C893D89DA016D9159
:10147000AD01D90117966C9317972150304028176A
:101480003907A1F73081A180B28043805480658004
:10149000968077802B854C853D841E857F85588975
:1014A00069898A88230F01E0231708F000E04A0DBC
:1014B00031E04A1508F030E0A02EA40E01E0A41699
:1014C00008F000E0302B0B2D030D41E00B1508F068
:1014D00040E0B32EB00E31E0B01608F030E0432B00
:1014E000140D31E0141508F030E0042F010F41E035
:1014F000011708F040E0342B750D41E0751508F038
:1015000040E0132F170F31E0171708F030E0432B9E
:10151000560D31E0561508F030E0450F71E04517E3
:1015200008F070E0372B690D71E0691508F070E084
:10153000360F51E0361708F050E0572B870C580D46
:101540002083A182B2820383148345833683578329
:1015500097012E5A3F4FD9014D919D01AC89BD890C
:1015600017964C9317971197BD8BAC8BA817B9079B
:1015700091F7D6019C9111967C90119712965C90F0
:10158000129713968C90139714969C901497159617
:10159000AC9015971696BC90169717960C918B8564
:1015A0002C857D856E845F85388949891A89890FE4
:1015B000B1E0891708F0B0E0270D91E0271508F099
:1015C00090E07B2E720E61E0721608F060E0962BC0
:1015D000750D21E0751508F020E0592E570E91E0A9
:1015E000571608F090E0292B682D660D91E06815DC
:1015F00008F090E0722F760F21E0761708F020E0D7
:10160000922B590D21E0591508F020E0692F650F44
:1016100091E0651708F090E0292B3A0D91E03A151A
:1016200008F090E0230F51E0231708F050E0952BCD
:101630004B0D31E04B1508F030E0592F540F91E07D
:10164000541708F090E0392B100F310FD6018C930E
:1016500011967C92119712965C92129713967C9336
:10166000139714966C93149715962C9315971696BA
:101670005C93169717963C9390817180A28183802A
:101680009480A580B68027811B858C857D856E849E
:101690005F85488939890A89B92FB11B1B2FB1E0B1
:1016A000911708F0B0E0672D681B862F91E0761641
:1016B00008F090E0682F6B1BB62F61E08B1708F0E5
:1016C00060E0962B8A2F871B782F81E0A71708F000
:1016D00080E0A72FA91B91E07A1708F090E0892BF2
:1016E000682D661991E0861608F090E0762F781B39
:1016F00081E0671708F080E0982B692D651B562F55
:1017000081E0961608F080E0652F691B91E056177E
:1017100008F090E0892B9A2D941B492F91E0A41694
:1017200008F090E0542F581B81E0451708F080E046
:10173000982B4B2D431B342F81E0B41608F080E02A
:10174000432F491B91E0341708F090E0892B201BB0
:10175000281B1083B183A2837383648355834683DC
:10176000278320916C0050916D0060916E00709104
:101770006F0090907000E0917100F09172001091F4
:101780007300D6014C9111968C9111971296AC90E2
:1017900012971396BC90139714960C911497159664
:1017A0008C90159716967C90169717969C91B42F4F
:1017B000B21B2B2F31E04B1708F030E0482F451BB0
:1017C000542F41E0851708F040E0852F831B382F08
:1017D00081E0531708F080E0482BAA2DA61B6A2F42
:1017E00051E0AA1608F050E0B62FB41B4B2F81E051
:1017F0006B1708F080E0582B6B2D671B762F61E08C
:10180000B71608F060E0872F851B582F81E0751709
:1018100008F080E0682B802F891971E0081708F024
:1018200070E0A82FA61B6A2F01E08A1708F000E0DD
:10183000702BB82DBE1BEB2F81E08B1608F080E0DB
:10184000AE2FA71B7A2FB1E0EA1708F0B0E08B2B80
:10185000B72DBF1BFB2FE1E07B1608F0E0E0AF2FB8
:10186000A81B8A2FA1E0F81708F0A0E0EA2B911B33
:101870009E1B01E00E94E31AF6012083318342831C
:101880005383648375838683978380918A008F5FF7
:1018900080938A00843009F0EAC080E090E09924C7
:1018A0009A94AFEF7FEF6FEF5FEF4FEF3FEF2FEFC8
:1018B000FC01EF56FD4F8080A180B280E38004815F
:1018C0001581B681E781E21728F12E17D1F4B317FD
:1018D00008F13B17B1F41417E8F0411791F405171C
:1018E000C8F0501771F4E616A8F06E1551F4B7164B
:1018F00088F07B1531F4AA1668F0AA1511F4891442
:1019000048F0892CAA2EB72EE62E052F142FB32FC0
:10191000E22F06C0A5EBCA2EA2E0DA2EC80ED91E11
:1019200008968032910549F0982CAA2D7B2D6E2DBA
:10193000502F412F3B2F2E2FBBCF40916C00A090FA
:101940006D00B0906E00E0906F0010917000B0914B
:101950007100A091720000917300F6012081518105
:10196000628173819480858076809781240F31E035
:10197000241708F030E05A0D41E05A1508F040E015
:10198000350F81E0351708F080E0482B6B0D51E0F2
:101990006B1508F050E0460F81E0461708F080E034
:1019A000582B7E0D61E07E1508F060E0570F81E056
:1019B000571708F080E0682B812F890D71E081179F
:1019C00008F070E0680F11E0681708F010E0712B64
:1019D000E82DEB0F81E0EB1708F080E07E0FB1E01F
:1019E0007E1708F0B0E08B2BF72DFA0FE1E0FA1725
:1019F00008F0E0E08F0FA1E08F1708F0A0E0EA2BDD
:101A0000900F9E0F0E94B50589E795E6A2E1BCEA1A
:101A100089839A83AB83BC838E010B5F1F4F7E014A
:101A20000894E11CF11CC701B80141E453E00E9495
:101A3000A3118823F9F081E493E0B701A80128ED10
:101A400036ED09ED16EDF8E0EF2EF12C0E943B107B
:101A5000ABE6B3E0F60188E001900D928150E1F72A
:101A600081E493E062E370E00E945A1403C0C7016E
:101A70000E94210865960FB6F894DEBF0FBECDBF59
:101A8000CF91DF911F910F91FF90EF90DF90CF905A
:101A9000BF90AF909F908F907F906F905F904F908E
:101AA0003F902F9008959093D6028093D502089589
:101AB0008F929F92AF92BF92CF92DF92EF92FF925E
:101AC0000F931F93DF93CF93CDB7DEB72A970FB64F
:101AD000F894DEBF0FBECDBF6C017B018FEF9FEF8F
:101AE000AFEFBFEF89839A83AB83BC83DE0115968A
:101AF000E5E7F0E086E001900D928150E1F78090FB
:101B0000AC059090AD05A090AE05B090AF051092D9
:101B1000AC051092AD051092AE051092AF05C6014E
:101B2000BE016F5F7F4FAE014B5F5F4F24E430E03B
:101B300003E410E00E943B108092AC059092AD054A
:101B4000A092AE05B092AF05C6018A966BEF72E027
:101B500044E050E00E94C81BC6018E966FEF72E011
:101B600044E050E00E94C81BF601F29688E0119212
:101B70008F5F8B3EE1F7E6EAF5E0D601AA5BBF4F47
:101B800081918D9385E0EC3AF807D1F7C6018A5E22
:101B90009E4F63E073E044E050E00E94C81B2A9629
:101BA0000FB6F894DEBF0FBECDBFCF91DF911F916E
:101BB0000F91FF90EF90DF90CF90BF90AF909F90EC
:101BC0008F900895EF92FF920F931F93CF93DF931F
:101BD0008B01BA01EA012196FE012491C22FD0E0C7
:101BE00022969801265D3F4F820F931FAE010E94FF
:101BF000C81BC00FD11FCE01DF91CF911F910F9154
:101C0000FF90EF900895EF92FF92CF93DF93EB0157
:101C1000BA01A901FC01EC0FFD1F26E322A724E075
:101C200023A79E01245D3F4F820F931F0E948B14B8
:101C30002696CE01DF91CF91FF90EF900895EF921D
:101C4000FF92CF93DF93EB01BA01A901FC01EC0FE6
:101C5000FD1F22E322A724E023A79E01245D3F4F1E
:101C6000820F931F0E948B142696CE01DF91CF9195
:101C7000FF90EF9008950F931F93CF93DF938B0105
:101C8000EA0109900020E9F72197C41BD50BFC015C
:101C9000E60FF71F2CE022A7C3A79B01245D3F4F4F
:101CA000280F391FC901BA014C2F50E00E94DF1BD9
:101CB0000E5F1F4F0C0F1D1FC801DF91CF911F91A9
:101CC0000F910895AF92BF92CF92DF92EF92FF9261
:101CD0000F931F93CF93DF93EC015A016B017801AF
:101CE00089018091D5029091D602009719F460E0A5
:101CF00071E009C0DC010D900020E9F7BD01681B0F
:101D0000790B6F5F7E4FCE010E94580DCE0160EFC0
:101D100070E04AE053E00E94E20DBC01CE01A60152
:101D200095010E941F0EBC01CE01A80197010E94DF
:101D3000030EBC014091D5025091D60241155105C8
:101D400021F0CE010E943B0EBC01C60FD71F8FEFC2
:101D50008AA76F5F7F4FCB01DF91CF911F910F91CA
:101D6000FF90EF90DF90CF90BF90AF9008954F928B
:101D70005F926F927F928F929F92AF92BF92DF920B
:101D8000EF92FF920F931F93CF93DF93EC018AA5FD
:101D9000823009F094C0CE018E966FEF72E044E07D
:101DA00050E00E94BB1B009709F089C0FE01E65E6F
:101DB000FE4F8081853309F082C0FE01E55EFE4F53
:101DC0008081813009F07BC0FE01E45EFE4F80819E
:101DD0008230C1F4CE014A960E9460147B018C01CE
:101DE000CE01CA960E946014AB01BC01CE019801DD
:101DF00087010E94620EBC01665D7F4FCE010E948A
:101E00005A145DC0853009F05AC0CE01CA960E94AE
:101E100060142B013C0180E19EE090938C00809344
:101E20008B00882499245401DD2429C0833049F48F
:101E3000C701845E9E4F8C0F9D1F0E9460144B0152
:101E40005C01F8018081813039F4C701845E9E4FC6
:101E50008C0F9D1F0E946014F80180818A3239F432
:101E6000C701845E9E4F8C0F9D1F0E946014FE016F
:101E7000EE0DFF1DE55EFE4F80818E5FD80EED2CCE
:101E8000FF248701065E1E4F0C0F1D1FF801808185
:101E90008F3F61F64092AC055092AD056092AE0561
:101EA0007092AF0580929C0590929D05A0929E0530
:101EB000B0929F0581E08093A0058093A105DF91FA
:101EC000CF911F910F91FF90EF90DF90BF90AF9057
:101ED0009F908F907F906F905F904F900895CF93D9
:101EE000DF93EC018091D5029091D602009719F40E
:101EF00064EF70E009C0DC010D900020E9F7BD013E
:101F0000681B790B6B507F4FCE010E94580DCE019C
:101F100060EF70E047E053E00E94E20DBC014091A9
:101F2000D5025091D6024115510521F0CE010E94F3
:101F30003B0EBC01C60FD71F8FEF8AA76F5F7F4F85
:101F4000CB01DF91CF910895CF93DF93EC010E94F5
:101F50006F0FBC01665D7F4FCE010E945A14DF9166
:101F6000CF910895EF92FF920F931F932091D70284
:101F70003091D8024091D9025091DA0279018A0158
:101F80000894E11CF11C011D111DE092D702F09292
:101F9000D8020093D9021093DA02283E63E0360794
:101FA00060E0460760E0560791F420918B00309185
:101FB0008C002150304030938C0020938B00109285
:101FC000D7021092D8021092D9021092DA02209110
:101FD0008B0030918C002115310541F40E94A40F33
:101FE0008FE090E090938C0080938B001F910F9175
:101FF000FF90EF900895CF93DF93EC018091D5028D
:102000009091D602009711F464EF07C0DC010D90A7
:102010000020E9F7BD01681B6B50CE0170E00E9403
:10202000580DCE0160EF70E047E053E00E94E20DF2
:10203000BC014091D5025091D6024115510521F0C5
:10204000CE010E943B0EBC01C60FD71F8FEF8AA79F
:10205000DF91CF910895FC0132A120E083A1280FE8
:10206000311DC9010895FC0134A120E085A1280F8C
:10207000311DC90108958F929F92BF92CF92DF9236
:10208000EF92FF920F931F93DF93CF930F92CDB7F1
:10209000DEB74C01B22E680188E090E0E80EF91E30
:1020A000C40121E1870139830E94A5133981F4011C
:1020B00032A3B3A2D4A2C5A2F6A2E7A210A611A68B
:1020C0000F90CF91DF911F910F91FF90EF90DF90D4
:1020D000CF90BF909F908F900895EF92FF920F93B3
:1020E0001F93CF93DF93EC018B019CA180E0EDA0C7
:1020F0009C012E0D311D7901CE014E960E94601477
:1021000034E4E316F10481F02CEFE21623E0F2064A
:1021100081F03DEFE31633E0F306E9F02BEBE21636
:102120002CE9F206D9F529C0CE01B8010E94B70EFC
:1021300035C02091AC053091AD054091AE05509170
:10214000AF05261737074807590741F5CE01B801F3
:102150000E94360523C02091AC053091AD05409119
:10216000AE055091AF052617370748075907B1F458
:10217000CE01B8010E94C00411C02091AC0530917D
:10218000AD054091AE055091AF05261737074807BA
:10219000590721F4CE01B8010E948B08DF91CF913D
:1021A0001F910F91FF90EF9008950895EBEDF2E0ED
:1021B00010821182128213823A9683E0EF33F8077D
:1021C000B9F70895EF92FF920F931F939B01AC0113
:1021D000EBEDF2E080E0E080F18002811381E21615
:1021E000F3060407150729F08F5F3A968A3099F7AE
:1021F0008FEF1F910F91FF90EF900895EF92FF9254
:102200000F931F93CF93DF93EB01288139814A818C
:102210005B81ABEDB2E0FD01ED90FD900D911C9165
:102220001397E216F30604071507C9F11A9663E03F
:10223000AF33B60789F722853385448555852083DA
:1022400031834283538326852483278525832089F0
:1022500026832189278322892087238921873A960B
:1022600023E0E533F20739F7288139814A815B8120
:10227000209335033093360340933703509338034C
:1022800020E030E0F901E75CFC4FDC01A20FB31F56
:102290004C9140832F5F3F4F2630310599F7DF91F6
:1022A000CF911F910F91FF90EF900895FC015489F9
:1022B00040E0258930E0242B352BC90108950F9388
:1022C0001F93CF93DF93EC018B01FC01A6EAB5E0ED
:1022D0008FEF80839D91968380A3319695E0AC3AF1
:1022E000B907B9F728E02C8796E09D871E8681E024
:1022F0008F87288B198A9A8B94E09B8B1C8A8D8BF5
:10230000CE0146960E9491144091AC055091AD05C6
:102310006091AE057091AF05CE014C960E948B1472
:10232000F8014081518162817381CE0186960E94BD
:102330008B14CE016AE270E00E945A14DF91CF91B3
:102340001F910F9108952F923F924F925F926F923B
:102350007F928F929F92AF92BF92CF92DF92EF9235
:10236000FF920F931F93CF93DF938C01EB017A01C0
:10237000FC01A080B180C280D3808091A0050E9422
:1023800048143B014C012090AC053090AD054090C5
:10239000AE055090AF058091A0050E944814A6207C
:1023A000B720C820D9206221732184219521A61647
:1023B000B706C806D90611F4B80102C06CE975E089
:1023C000FB012081318142815381EBEDF2E080E01D
:1023D000A080B180C280D380A216B306C406D50601
:1023E00029F08F5F3A968A3099F779C0282F30E02C
:1023F000F901EE0FFF1F93E0220F331F9A95E1F7CB
:10240000E20FF31FE552FD4F94819883282F30E0AF
:10241000F901EE0FFF1F13E0220F331F1A95E1F7AA
:10242000E20FF31FE552FD4F95819983282F30E08D
:10243000F901EE0FFF1FA3E0220F331FAA95E1F76A
:10244000E20FF31FE552FD4F96819A83282F30E06B
:10245000F901EE0FFF1F63E0220F331F6A95E1F7CA
:10246000E20FF31FE552FD4F97819B83282F30E049
:10247000F901EE0FFF1F43E0220F331F4A95E1F7EA
:10248000E20FF31FE552FD4F90859C83282F30E02B
:10249000F901EE0FFF1F83E0220F331F8A95E1F74A
:1024A000E20FF31FE552FD4F81858D8381E004C06B
:1024B000C7010E945F1180E0DF91CF911F910F91C2
:1024C000FF90EF90DF90CF90BF90AF909F908F9054
:1024D0007F906F905F904F903F902F900895E11400
:1024E000F10431F7E8CF8F929F92AF92BF92CF92D3
:1024F000DF92EF92FF920F931F93DF93CF93CDB7AD
:10250000DEB728970FB6F894DEBF0FBECDBF8C01A3
:102510006B0176E2E72EF12CE80EF91EC7010E944E
:1025200060149B01AC018091AC059091AD05A09128
:10253000AE05B091AF05281739074A075B0709F0C8
:102540005FC0F801348920E0858990E0822B932BCD
:102550008130910509F042C06CE1A62EB12CA00E8D
:10256000B11EC5010E94601469837A838B839C83AA
:1025700056E1852E912C800E911EC401BE016F5F25
:102580007F4F0E94FE10F80180E09689908390A30F
:102590008F5F31968630C9F7C80106960E94911464
:1025A000C4010E949114F801148A82E0858B409145
:1025B000AC055091AD056091AE057091AF05C501B8
:1025C0000E948B1449815A816B817C81C7010E94D2
:1025D0008B14C801B6010E945A1412C082309105B2
:1025E00079F4C8014C960E9460146D837E838F83BA
:1025F0009887C8014696BE016B5F7F4F0E94FE1010
:1026000028960FB6F894DEBF0FBECDBFCF91DF91F5
:102610001F910F91FF90EF90DF90CF90BF90AF9000
:102620009F908F900895EF92FF920F931F93CF93F7
:10263000DF93EC018B018AA18830A1F57E01FE01B8
:1026400080E090E026812193019686309105D1F7B4
:10265000CE0106960E9491141AA28CA1883F18F010
:102660008DA18F5F8DA38CA1885F8CA380E090E00B
:10267000F701228D268F01960894E11CF11C84300D
:102680009105B1F74091AC055091AD056091AE0553
:102690007091AF05CE014A960E948B14CE01B8010D
:1026A0000E945A14DF91CF911F910F91FF90EF90EC
:1026B0000895EF92FF920F931F93CF93DF93EB0157
:1026C000DC0112C01C911196EC9011971296F12F1B
:1026D000E0E08F010E0D111D780100E010E02E0DDD
:1026E0003F1D401F511F2297C230D10558F7FB01F3
:1026F000EE7FE80FF91F60FF08C0908180E0A0E046
:10270000B0E0280F391F4A1F5B1FDA01C901A07012
:10271000B0709A0144275527280F391F4A1F5B1FA5
:10272000DA01C901A070B0709A0144275527280F1B
:10273000391F4A1F5B1F20953095C901DF91CF914A
:102740001F910F91FF90EF900895EF92FF920F93DA
:102750001F93CF93DF93EC01780184E190E0E80EC2
:10276000F91EDE0180E090E08A01080F191FF801D0
:1027700030813C938C010A551A4FF801308116962E
:102780003C931697019611968630910569F788E07B
:102790008C871D868E01025F1F4F85E48E871F8602
:1027A000F88AE98A80913F03909140039A8B809147
:1027B0003F03909140038B8B80913F0390914003A6
:1027C00001969093400380933F0380E48C8B1D8A95
:1027D00080E88E8B2F8BFB01408151816281738158
:1027E000CE014E960E948B144091AC055091AD05E0
:1027F0006091AE057091AF05CE014A960E948B1490
:10280000188E198EC80164E170E020E030E040E0ED
:1028100050E00E945913988F898FDF91CF911F91BB
:102820000F91FF90EF90089520E030E0F901EA5514
:10283000FA4FDC01A20FB31F4C9140832F5F3F4F33
:102840002630310599F7E0919905F0919A0509959F
:1028500008958DEF91E0A0E0BAE08093AC059093ED
:10286000AD05A093AE05B093AF0581E095E6A2E17A
:10287000BCEA80939C0590939D05A0939E05B09320
:102880009F0588E18093A00581E08093A1050895CC
:1028900060E270E0681B71092FEF3FEF4FEF5FEFD1
:1028A00004C0220F331F441F551F6A95D2F7B90188
:1028B000CA010895E091A205F091A3050995089534
:1028C000FC01238130E040E050E0808190E0A0E016
:1028D000B0E0B82FAA2799278827282B392B4A2B15
:1028E0005B2B818190E0A0E0B0E0DC019927882794
:1028F000282B392B4A2B5B2B828190E0A0E0B0E0A3
:10290000BA2FA92F982F8827282B392B4A2B5B2BDE
:10291000B901CA010895FC01708361835283438326
:10292000089520E030E0FC01E20FF31FD901AA5521
:10293000BA4F4C9140832F5F3F4F2630310599F7B6
:102940000895CF93DF93EC0168E572E00E943C1597
:10295000BC0180919B05882339F16115710521F136
:102960009C8580E02D85820F911D28E080309207A4
:1029700041F028E086309207B9F4CE010E9473122C
:1029800013C08F89813029F0863059F0813161F48C
:1029900004C0CE010E94131307C0CE010E946D1027
:1029A00003C0CE010E94D510DF91CF910895DF932F
:1029B000CF9300D000D000D0CDB7DEB79093A30561
:1029C0008093A2057093A5056093A40550939A0582
:1029D00040939905DE011196EBE7F0E086E0019067
:1029E0000D928150E1F7CE0101960E9414141092CD
:1029F000A10581E080939B050E94D61026960FB614
:102A0000F894DEBF0FBECDBFCF91DF910895DD9A60
:102A10008AB388628ABBD4988BB3877C8BBB0895BA
:102A2000382F28E080E092E01AC0492F4A95F1F74C
:102A300037FF02C0DB9A01C0DB98492F4A95F1F7B6
:102A4000DD9A492F4A95F1F7880FCC998160330FB1
:102A5000492F4A95F1F7DD98492F4A95F1F7215012
:102A600020F708951F93182F892F0E941015812F8A
:102A70000E9410151F910895DF92EF92FF920F931D
:102A80001F93CF93DF93EC017B018091B1058823E5
:102A9000B9F01092B105DE988FEB0E94101583E01B
:102AA0000E941015DE9A0091B105DE988FE90E9410
:102AB0001015802F8295869587700E941015DE9ADA
:102AC000DE988CE10E94101580E00E941015DE9ABD
:102AD00086FD29C08091B1058032C1F080E28093EB
:102AE000B105DE988FEB0E94101583E00E9410154F
:102AF000DE9A0091B105DE988FE90E941015802FB3
:102B00008295869587700E941015DE9ADE9889E17D
:102B10000E94101580E00E941015DE9A882319F497
:102B200000E010E054C10091B2051091B30580910E
:102B3000B1058823B9F01092B105DE988FEB0E94A1
:102B4000101583E00E941015DE9AD090B105DE9832
:102B50008FE90E9410158D2D8295869587700E94B1
:102B60001015DE9ADE9880E40E941015802F0E94D6
:102B70001015DE9A0091B2051091B3058091B10550
:102B80008823B9F01092B105DE988FEB0E941015E2
:102B900083E00E941015DE9AD090B105DE988FE98F
:102BA0000E9410158D2D8295869587700E941015B4
:102BB000DE9ADE9881E40E941015812F0E94101584
:102BC000DE9ADE988AE30E94101580E00E941015BC
:102BD000DE9A90E09093B3058093B2050091B20520
:102BE0001091B305DE988AE30E94101580E00E94E0
:102BF0001015DE9A382F20E0022B132B1093B3050B
:102C00000093B205DE988AE30E94101580E00E94CE
:102C10001015DE9A082F10E0DE988AE30E94101546
:102C200080E00E941015DE9A382F20E0022B132B33
:102C3000DE988AE30E94101580E00E941015DE9A4B
:102C4000DE988AE30E94101580E00E941015DE9A3B
:102C5000E016F10608F4870104501040DE988AE37C
:102C60000E941015780107C080E00E94101589931A
:102C70000894E108F108E114F104B1F7DE9A8091BB
:102C8000B2059091B30501972AE18030920708F4CC
:102C900044C08091B1058823B9F01092B105DE9847
:102CA0008FEB0E94101583E00E941015DE9AE090D1
:102CB000B105DE988FE90E9410158E2D82958695BC
:102CC00087700E941015DE9ADE988CE40E94101521
:102CD0008FEF0E941015DE9A8091B1058823B9F01C
:102CE0001092B105DE988FEB0E94101583E00E94D0
:102CF0001015DE9AE090B105DE988FE90E9410155C
:102D00008E2D8295869587700E941015DE9ADE982A
:102D10008DE40E94101589E14FC0C091B205D09199
:102D2000B3058091B1058823B9F01092B105DE9802
:102D30008FEB0E94101583E00E941015DE9AE09040
:102D4000B105DE988FE90E9410158E2D829586952B
:102D500087700E941015DE9ADE988CE40E94101590
:102D60009E012150822F0E941015DE9AC091B2055B
:102D7000D091B3058091B1058823B9F01092B105C7
:102D8000DE988FEB0E94101583E00E941015DE9AEA
:102D9000E090B105DE988FE90E9410158E2D829586
:102DA000869587700E941015DE9ADE988DE40E9449
:102DB000101521977E018F2D0E941015DE9ADE9846
:102DC0008EE90E94101580E40E941015DE9AC80159
:102DD000DF91CF911F910F91FF90EF90DF900895B9
:102DE0000F931F93CF93DF93EC0118818091B1056E
:102DF0008036C1F080E68093B105DE988FEB0E94AB
:102E0000101583E00E941015DE9A0091B105DE983E
:102E10008FE90E941015802F8295869587700E94F9
:102E20001015DE9ADE9884E40E941015812F0E940E
:102E30001015DE9A19818091B1058036C1F080E6C7
:102E40008093B105DE988FEB0E94101583E00E94FD
:102E50001015DE9A0091B105DE988FE90E941015D9
:102E6000802F8295869587700E941015DE9ADE98D5
:102E700085E40E941015812F0E941015DE9A1A8198
:102E80008091B1058036C1F080E68093B105DE986F
:102E90008FEB0E94101583E00E941015DE9A0091BE
:102EA000B105DE988FE90E941015802F82958695D6
:102EB00087700E941015DE9ADE9882E40E94101539
:102EC000812F0E941015DE9A1B818091B1058036FA
:102ED000C1F080E68093B105DE988FEB0E9410155B
:102EE00083E00E941015DE9A0091B105DE988FE90B
:102EF0000E941015802F8295869587700E9410156C
:102F0000DE9ADE9883E40E941015812F0E9410152E
:102F1000DE9A1C818091B1058036C1F080E68093F5
:102F2000B105DE988FEB0E94101583E00E9410150A
:102F3000DE9A0091B105DE988FE90E941015802F6E
:102F40008295869587700E941015DE9ADE9880E43F
:102F50000E941015812F0E941015DE9A1D8180910C
:102F6000B1058036C1F080E68093B105DE988FEB25
:102F70000E94101583E00E941015DE9A0091B105A1
:102F8000DE988FE90E941015802F829586958770B4
:102F90000E941015DE9ADE9881E40E941015812FA0
:102FA0000E941015DE9ADF91CF911F910F91089525
:102FB000FF920F931F93CF93DF938FEF8093B10511
:102FC0008AB3806C8ABBDE9ADF9880E49CE9FC01BE
:102FD0003197F1F7DF9AE0EFF0E03197F1F70197E1
:102FE000F1F78091B1058823B9F01092B105DE9810
:102FF0008FEB0E94101583E00E941015DE9A10914D
:10300000B105DE988FE90E941015812F8295869573
:1030100087700E941015DE9ADE988DE10E941015CF
:1030200080E00E941015DE9A80FFDBCF1092B3057E
:103030001092B205CDE0D3E0FE01149131960491D7
:103040002091B105812F90E08076907030E082175A
:103050009307C9F0812F80768093B105DE988FEBBE
:103060000E94101583E00E941015DE9AF090B105C1
:10307000DE988FE90E9410158F2D829586958770B6
:103080000E941015DE9ADE98812F8F7180640E9455
:103090001015802F0E941015DE9A2296F3E0CD3293
:1030A000DF0709F0C9CF8091B1058034C1F080E419
:1030B0008093B105DE988FEB0E94101583E00E948B
:1030C0001015DE9A1091B105DE988FE90E94101557
:1030D000812F8295869587700E941015DE9ADE9862
:1030E00084E50E94101580E10E941015DE9A8091FF
:1030F000B1058034C1F080E48093B105DE988FEB98
:103100000E94101583E00E941015DE9A1091B105FF
:10311000DE988FE90E941015812F82958695877021
:103120000E941015DE9ADE9886E50E94101580E058
:103130000E941015DE9A8091B1058034C1F080E4C0
:103140008093B105DE988FEB0E94101583E00E94FA
:103150001015DE9A1091B105DE988FE90E941015C6
:10316000812F8295869587700E941015DE9ADE98D1
:1031700087E50E94101581E00E941015DE9A10E686
:103180008091B1058036B9F01093B105DE988FEBD0
:103190000E94101583E00E941015DE9A0091B1057F
:1031A000DE988FE90E941015802F82958695877092
:1031B0000E941015DE9ADE988AE00E94101580E0C9
:1031C0000E94101580E00E941015DE9A80FDD8CF75
:1031D0008091B1058823B9F01092B105DE988FEB8C
:1031E0000E94101583E00E941015DE9A1091B1051F
:1031F000DE988FE90E941015812F82958695877041
:103200000E941015DE9ADE988BE50E94101580EC66
:103210000E941015DE9ADE988FE90E94101584E056
:103220000E941015DE9A8091B1058034C1F080E4CF
:103230008093B105DE988FEB0E94101583E00E9409
:103240001015DE9A1091B105DE988FE90E941015D5
:10325000812F8295869587700E941015DE9ADE98E0
:1032600084E50E94101584E10E941015DE9A809179
:10327000B1058034C1F080E48093B105DE988FEB16
:103280000E94101583E00E941015DE9A1091B1057E
:10329000DE988FE90E941015812F829586958770A0
:1032A0000E941015DE9ADE9886E50E94101582E7CE
:1032B0000E941015DE9A8091B1058034C1F080E43F
:1032C0008093B105DE988FEB0E94101583E00E9479
:1032D0001015DE9A1091B105DE988FE90E94101545
:1032E000812F8295869587700E941015DE9ADE9850
:1032F00087E50E94101584E00E941015DE9A10E602
:103300008091B1058036B9F01093B105DE988FEB4E
:103310000E94101583E00E941015DE9A0091B105FD
:10332000DE988FE90E941015802F82958695877010
:103330000E941015DE9ADE988AE00E94101580E047
:103340000E94101580E00E941015DE9A80FDD8CFF3
:103350008091B1058036C1F080E68093B105DE989A
:103360008FEB0E94101583E00E941015DE9A1091D9
:10337000B105DE988FE90E941015812F8295869500
:1033800087700E941015DE9ADE9882E10E94101567
:1033900080E00E941015DE9A8093B005DF91CF91F6
:1033A0001F910F91FF900895BF92CF92DF92EF92FD
:1033B000FF920F931F93CF93DF93EC018B01EE24C9
:1033C000FF2480EAC82E8FE0D82E8091B105882393
:1033D000B9F01092B105DE988FEB0E94101583E0D2
:1033E0000E941015DE9AB090B105DE988FE90E9418
:1033F00010158B2D8295869587700E941015DE9A88
:10340000DE988FE10E94101580E00E941015DE9A70
:1034100083FF0BC0C6010197F1F70894E11CF11C72
:1034200084EFE81681E0F80681F6DE9882E40E94D7
:10343000101580E00E941015DE9ADE9883E40E9449
:1034400010158AE10E941015DE9ADE9886E40E942B
:103450001015802F0E941015DE9ADE9887E40E94D6
:103460001015C8018050964E892F0E941015DE9AC3
:10347000DE988AE70E94101580E00E941015DE9AFF
:10348000DE988AE70E94101505C089910E941015E8
:103490000150104001151105C1F7DE9ADE988FE941
:1034A0000E94101580E80E941015DE9ADE988FEBBE
:1034B0000E94101580E80E941015DE9ADE988FE9B0
:1034C0000E9410158CE00E941015DE9ADF91CF91BA
:1034D0001F910F91FF90EF90DF90CF90BF900895D4
:1034E000A0E1B0E0E6E7FAE10C94901B002309F4B8
:1034F00066C07E010894E11CF11CA8E0F70111925E
:10350000AA95E9F729833A834B835C836D837E8395
:103510008F83988780E2801B682F772767FD7095DF
:103520002D813E814F8158851816A4F01D861E8678
:103530001F86188A88279927861B970B04C05695E3
:103540004795379527958A95D2F729873A874B87EC
:103550005C872DC0112707FD1095DA01C901002EE7
:1035600004C0B695A795979587950A94D2F78D874D
:103570009E87AF87B88BDA01C90104C0880F991FF5
:10358000AA1FBB1F6A95D2F729813A814B815C81C2
:1035900004C056954795379527950A95D2F7822B03
:1035A000932BA42BB52B89879A87AB87BC8729855A
:1035B0003A854B855C856D857E858F85988960967B
:1035C000E6E00C94AC1BA0E1B0E0E9EEFAE10C946B
:1035D0008E1B002309F466C06E010894C11CD11C27
:1035E000A8E0F6011192AA95E9F729833A834B8363
:1035F0005C836D837E838F83988720E2201B8D817F
:103600009E81AF81B885422F552747FD50951216F0
:10361000B4F08C019D01330F000B102F98010D8722
:103620001E872F87388B22273327241B350B04C096
:10363000B595A795979587952A95D2F727C0112715
:1036400007FD10956C017D01002E04C0F594E794F0
:10365000D794C7940A94D2F7CD86DE86EF86F88A8F
:1036600004C0880F991FAA1FBB1F4A95D2F7298152
:103670003A814B815C8104C05695479537952795D3
:103680000A95D2F7822B932BA42BB52B89879A8787
:10369000AB87BC8729853A854B855C856D857E85A2
:1036A0008F8598896096E8E00C94AA1B991B79E0B5
:1036B00004C0991F961708F0961B881F7A95C9F7C2
:1036C00080950895A1E21A2EAA1BBB1BFD010DC017
:1036D000AA1FBB1FEE1FFF1FA217B307E407F507C2
:1036E00020F0A21BB30BE40BF50B661F771F881F9E
:1036F000991F1A9469F760957095809590959B0134
:10370000AC01BD01CF0108952F923F924F925F927D
:103710006F927F928F929F92AF92BF92CF92DF92E1
:10372000EF92FF920F931F93CF93DF93CDB7DEB746
:10373000CA1BDB0B0FB6F894DEBF0FBECDBF0994DA
:103740002A88398848885F846E847D848C849B8431
:10375000AA84B984C884DF80EE80FD800C811B813F
:10376000AA81B981CE0FD11D0FB6F894DEBF0FBE6E
:10377000CDBFED010895FB01DC0104C08D910590E2
:10378000801921F441505040C8F7881B990B0895C7
:10379000FB01DC0102C005900D9241505040D8F76A
:1037A0000895FB01DC014150504030F08D910590AF
:1037B000801919F40020B9F7881B990B0895FB01B3
:1037C000DC0102C001900D9241505040D8F708959D
:0437D000F894FFCF9B
:1037D4006C656470616E656C0060001000E2074403
:1037E400FF1DF8BBC0FFFFFFFFFFFF001966785CF9
:0237F400BC0017
:00000001FF
